{"abi":[{"type":"constructor","inputs":[{"name":"owner_","type":"address","internalType":"address"},{"name":"feeRecipient_","type":"address","internalType":"address"},{"name":"autoClaimAccount_","type":"address","internalType":"address"},{"name":"autoClaimFeeForOnce_","type":"uint256","internalType":"uint256"}],"stateMutability":"nonpayable"},{"type":"function","name":"_autoClaimAccount","inputs":[],"outputs":[{"name":"","type":"address","internalType":"address"}],"stateMutability":"view"},{"type":"function","name":"_autoClaimFeeForOnce","inputs":[],"outputs":[{"name":"","type":"uint256","internalType":"uint256"}],"stateMutability":"view"},{"type":"function","name":"_feeRecipient","inputs":[],"outputs":[{"name":"","type":"address","internalType":"address"}],"stateMutability":"view"},{"type":"function","name":"autoClaimAccount","inputs":[],"outputs":[{"name":"","type":"address","internalType":"address"}],"stateMutability":"view"},{"type":"function","name":"autoClaimFeeForOnce","inputs":[],"outputs":[{"name":"","type":"uint256","internalType":"uint256"}],"stateMutability":"view"},{"type":"function","name":"closeStream","inputs":[{"name":"streamId","type":"uint256","internalType":"uint256"}],"outputs":[],"stateMutability":"nonpayable"},{"type":"function","name":"createStream","inputs":[{"name":"createParams","type":"tuple","internalType":"struct Struct.CreateStreamParams","components":[{"name":"recipient","type":"address","internalType":"address"},{"name":"sender","type":"address","internalType":"address"},{"name":"deposit","type":"uint256","internalType":"uint256"},{"name":"tokenAddress","type":"address","internalType":"address"},{"name":"startTime","type":"uint256","internalType":"uint256"},{"name":"stopTime","type":"uint256","internalType":"uint256"},{"name":"interval","type":"uint256","internalType":"uint256"},{"name":"autoClaim","type":"bool","internalType":"bool"},{"name":"autoClaimInterval","type":"uint256","internalType":"uint256"},{"name":"cliffTime","type":"uint256","internalType":"uint256"},{"name":"cliffAmount","type":"uint256","internalType":"uint256"},{"name":"cliffDone","type":"bool","internalType":"bool"},{"name":"createAt","type":"uint256","internalType":"uint256"},{"name":"isEntity","type":"bool","internalType":"bool"},{"name":"isPaused","type":"bool","internalType":"bool"},{"name":"closed","type":"bool","internalType":"bool"}]}],"outputs":[],"stateMutability":"payable"},{"type":"function","name":"deltaOf","inputs":[{"name":"streamId","type":"uint256","internalType":"uint256"}],"outputs":[{"name":"delta","type":"uint256","internalType":"uint256"}],"stateMutability":"view"},{"type":"function","name":"extendStream","inputs":[{"name":"streamId","type":"uint256","internalType":"uint256"},{"name":"newStopTime","type":"uint256","internalType":"uint256"}],"outputs":[],"stateMutability":"nonpayable"},{"type":"function","name":"feeRecipient","inputs":[],"outputs":[{"name":"","type":"address","internalType":"address"}],"stateMutability":"view"},{"type":"function","name":"getPauseStatus","inputs":[{"name":"streaId","type":"uint256","internalType":"uint256"}],"outputs":[{"name":"status","type":"bool","internalType":"bool"}],"stateMutability":"view"},{"type":"function","name":"getStopTime","inputs":[{"name":"streaId","type":"uint256","internalType":"uint256"}],"outputs":[{"name":"stopTime","type":"uint256","internalType":"uint256"}],"stateMutability":"view"},{"type":"function","name":"getStream","inputs":[{"name":"streamId","type":"uint256","internalType":"uint256"}],"outputs":[{"name":"","type":"tuple","internalType":"struct Struct.Stream","components":[{"name":"sender","type":"address","internalType":"address"},{"name":"recipient","type":"address","internalType":"address"},{"name":"deposit","type":"uint256","internalType":"uint256"},{"name":"startTime","type":"uint256","internalType":"uint256"},{"name":"stopTime","type":"uint256","internalType":"uint256"},{"name":"tokenAddress","type":"address","internalType":"address"},{"name":"interval","type":"uint256","internalType":"uint256"},{"name":"createdAt","type":"uint256","internalType":"uint256"},{"name":"isEntity","type":"bool","internalType":"bool"},{"name":"closed","type":"bool","internalType":"bool"},{"name":"autoClaim","type":"bool","internalType":"bool"},{"name":"cliffTime","type":"uint256","internalType":"uint256"},{"name":"cliffAmount","type":"uint256","internalType":"uint256"},{"name":"cliffDone","type":"bool","internalType":"bool"},{"name":"isPaused","type":"bool","internalType":"bool"},{"name":"autoClaimInterval","type":"uint256","internalType":"uint256"}]}],"stateMutability":"view"},{"type":"function","name":"getStreamClose","inputs":[{"name":"streaId","type":"uint256","internalType":"uint256"}],"outputs":[{"name":"close","type":"bool","internalType":"bool"},{"name":"entity","type":"bool","internalType":"bool"}],"stateMutability":"view"},{"type":"function","name":"nextStreamId","inputs":[],"outputs":[{"name":"","type":"uint256","internalType":"uint256"}],"stateMutability":"view"},{"type":"function","name":"owner","inputs":[],"outputs":[{"name":"","type":"address","internalType":"address"}],"stateMutability":"view"},{"type":"function","name":"pauseStream","inputs":[{"name":"streamId","type":"uint256","internalType":"uint256"}],"outputs":[],"stateMutability":"nonpayable"},{"type":"function","name":"renounceOwnership","inputs":[],"outputs":[],"stateMutability":"nonpayable"},{"type":"function","name":"resumeStream","inputs":[{"name":"streamId","type":"uint256","internalType":"uint256"}],"outputs":[],"stateMutability":"nonpayable"},{"type":"function","name":"setAutoClaimAccount","inputs":[{"name":"newAutoClaimAccount","type":"address","internalType":"address"}],"outputs":[],"stateMutability":"nonpayable"},{"type":"function","name":"setAutoFeeForOnce","inputs":[{"name":"newAutoFeeForOnce","type":"uint256","internalType":"uint256"}],"outputs":[],"stateMutability":"nonpayable"},{"type":"function","name":"setNewRecipient","inputs":[{"name":"streamId","type":"uint256","internalType":"uint256"},{"name":"newRecipient","type":"address","internalType":"address"}],"outputs":[],"stateMutability":"nonpayable"},{"type":"function","name":"streamInfo","inputs":[{"name":"streaId","type":"uint256","internalType":"uint256"}],"outputs":[{"name":"","type":"address","internalType":"address"},{"name":"","type":"uint256","internalType":"uint256"}],"stateMutability":"view"},{"type":"function","name":"tokenFeeRate","inputs":[{"name":"tokenAddress","type":"address","internalType":"address"}],"outputs":[{"name":"","type":"uint256","internalType":"uint256"}],"stateMutability":"view"},{"type":"function","name":"tokenRegister","inputs":[{"name":"tokenAddress","type":"address","internalType":"address"},{"name":"feeRate","type":"uint256","internalType":"uint256"}],"outputs":[],"stateMutability":"nonpayable"},{"type":"function","name":"transferOwnership","inputs":[{"name":"newOwner","type":"address","internalType":"address"}],"outputs":[],"stateMutability":"nonpayable"},{"type":"function","name":"withdrawFromStream","inputs":[{"name":"streamId","type":"uint256","internalType":"uint256"},{"name":"amount","type":"uint256","internalType":"uint256"}],"outputs":[],"stateMutability":"nonpayable"},{"type":"event","name":"CloseStream","inputs":[{"name":"streamId","type":"uint256","indexed":false,"internalType":"uint256"},{"name":"operator","type":"address","indexed":true,"internalType":"address"},{"name":"recipientBalance","type":"uint256","indexed":false,"internalType":"uint256"},{"name":"senderBalance","type":"uint256","indexed":false,"internalType":"uint256"}],"anonymous":false},{"type":"event","name":"CreateStream","inputs":[{"name":"streamId","type":"uint256","indexed":true,"internalType":"uint256"},{"name":"sender","type":"address","indexed":true,"internalType":"address"},{"name":"recipient","type":"address","indexed":true,"internalType":"address"},{"name":"deposit","type":"uint256","indexed":false,"internalType":"uint256"},{"name":"tokenAddress","type":"address","indexed":false,"internalType":"address"},{"name":"startTime","type":"uint256","indexed":false,"internalType":"uint256"},{"name":"stopTime","type":"uint256","indexed":false,"internalType":"uint256"},{"name":"interval","type":"uint256","indexed":false,"internalType":"uint256"},{"name":"cliffAmount","type":"uint256","indexed":false,"internalType":"uint256"},{"name":"cliffTime","type":"uint256","indexed":false,"internalType":"uint256"},{"name":"autoClaimInterval","type":"uint256","indexed":false,"internalType":"uint256"},{"name":"autoClaim","type":"bool","indexed":false,"internalType":"bool"}],"anonymous":false},{"type":"event","name":"OwnershipTransferred","inputs":[{"name":"previousOwner","type":"address","indexed":true,"internalType":"address"},{"name":"newOwner","type":"address","indexed":true,"internalType":"address"}],"anonymous":false},{"type":"event","name":"PauseStream","inputs":[{"name":"streamId","type":"uint256","indexed":true,"internalType":"uint256"},{"name":"operator","type":"address","indexed":true,"internalType":"address"},{"name":"paused","type":"bool","indexed":false,"internalType":"bool"}],"anonymous":false},{"type":"event","name":"ResumeStream","inputs":[{"name":"streamId","type":"uint256","indexed":true,"internalType":"uint256"},{"name":"operator","type":"address","indexed":true,"internalType":"address"},{"name":"paused","type":"bool","indexed":false,"internalType":"bool"}],"anonymous":false},{"type":"event","name":"SetNewRecipient","inputs":[{"name":"streamId","type":"uint256","indexed":false,"internalType":"uint256"},{"name":"operator","type":"address","indexed":false,"internalType":"address"},{"name":"newRecipient","type":"address","indexed":false,"internalType":"address"}],"anonymous":false},{"type":"event","name":"TokenRegistered","inputs":[{"name":"tokenAddress","type":"address","indexed":true,"internalType":"address"},{"name":"feeRate","type":"uint256","indexed":false,"internalType":"uint256"}],"anonymous":false},{"type":"event","name":"WithdrawFromStream","inputs":[{"name":"streamId","type":"uint256","indexed":true,"internalType":"uint256"},{"name":"operator","type":"address","indexed":true,"internalType":"address"},{"name":"recipientBalance","type":"uint256","indexed":false,"internalType":"uint256"}],"anonymous":false},{"type":"error","name":"OwnableInvalidOwner","inputs":[{"name":"owner","type":"address","internalType":"address"}]},{"type":"error","name":"OwnableUnauthorizedAccount","inputs":[{"name":"account","type":"address","internalType":"address"}]},{"type":"error","name":"ReentrancyGuardReentrantCall","inputs":[]},{"type":"error","name":"SafeERC20FailedOperation","inputs":[{"name":"token","type":"address","internalType":"address"}]}],"bytecode":{"object":"0x608060405234801561001057600080fd5b506040516120a03803806120a083398101604081905261002f9161018f565b836001600160a01b03811661005f57604051631e4fbdf760e01b8152600060048201526024015b60405180910390fd5b610068816100b6565b506001805561007684610106565b600380546001600160a01b039485166001600160a01b031991821617909155600480549390941692169190911790915560055550620186a06002556101da565b600080546001600160a01b038381166001600160a01b0319831681178455604051919092169283917f8be0079c531659141344cd1fd0a4f28419497f9722a3daafe3b4186f6b6457e09190a35050565b61010e610144565b6001600160a01b03811661013857604051631e4fbdf760e01b815260006004820152602401610056565b610141816100b6565b50565b6000546001600160a01b031633146101715760405163118cdaa760e01b8152336004820152602401610056565b565b80516001600160a01b038116811461018a57600080fd5b919050565b600080600080608085870312156101a557600080fd5b6101ae85610173565b93506101bc60208601610173565b92506101ca60408601610173565b6060959095015193969295505050565b611eb7806101e96000396000f3fe60806040526004361061019c5760003560e01c80637a9b2c6c116100ec578063a6bf56661161008a578063cb6bebf911610064578063cb6bebf91461069a578063ea8d80b3146106ba578063f2fde38b146106cd578063fb6a984e146106ed57600080fd5b8063a6bf56661461063a578063a82ccd4d1461065a578063b04c066c1461067a57600080fd5b806397da9b5c116100c657806397da9b5c146105ba578063a1ca133e146105da578063a2e40c44146105fa578063a342f2381461061a57600080fd5b80637a9b2c6c146103e6578063894e9a0d146104065780638da5cb5b1461059c57600080fd5b8063578255651161015957806367c3e7271161013357806367c3e7271461033e578063715018a61461039c5780637320659f146103b1578063746ff13d146103c657600080fd5b806357825565146102a65780635e393900146102c657806364d3f5cf146102f657600080fd5b80630647006a146101a15780631726c966146101fa5780631d1b7b771461022c5780631e4602ef1461024e5780631e99d569146102725780634690484014610288575b600080fd5b3480156101ad57600080fd5b506101de6101bc366004611b1d565b6000908152600860208190526040909120015460ff6101008204811692911690565b6040805192151583529015156020830152015b60405180910390f35b34801561020657600080fd5b506004546001600160a01b03165b6040516001600160a01b0390911681526020016101f1565b34801561023857600080fd5b5061024c610247366004611b1d565b61070d565b005b34801561025a57600080fd5b5061026460055481565b6040519081526020016101f1565b34801561027e57600080fd5b5061026460025481565b34801561029457600080fd5b506003546001600160a01b0316610214565b3480156102b257600080fd5b5061024c6102c1366004611b52565b6108fe565b3480156102d257600080fd5b506102646102e1366004611b1d565b60009081526008602052604090206004015490565b34801561030257600080fd5b5061032e610311366004611b1d565b6000908152600860205260409020600b0154610100900460ff1690565b60405190151581526020016101f1565b34801561034a57600080fd5b5061037d610359366004611b1d565b600090815260086020526040902080546002909101546001600160a01b0390911691565b604080516001600160a01b0390931683526020830191909152016101f1565b3480156103a857600080fd5b5061024c610928565b3480156103bd57600080fd5b50600554610264565b3480156103d257600080fd5b5061024c6103e1366004611b1d565b61093c565b3480156103f257600080fd5b5061024c610401366004611b74565b610a0c565b34801561041257600080fd5b5061058f610421366004611b1d565b6040805161020081018252600080825260208201819052918101829052606081018290526080810182905260a0810182905260c0810182905260e08101829052610100810182905261012081018290526101408101829052610160810182905261018081018290526101a081018290526101c081018290526101e08101919091525060009081526008602081815260409283902083516102008101855281546001600160a01b03908116825260018301548116938201939093526002820154948101949094526003810154606085015260048101546080850152600581015490911660a0840152600681015460c0840152600781015460e08401529081015460ff8082161515610100808601919091528083048216151561012086015262010000909204811615156101408501526009830154610160850152600a830154610180850152600b83015480821615156101a0860152919091041615156101c0830152600c01546101e082015290565b6040516101f19190611b96565b3480156105a857600080fd5b506000546001600160a01b0316610214565b3480156105c657600080fd5b5061024c6105d5366004611ca5565b610d61565b3480156105e657600080fd5b5061024c6105f5366004611b74565b610e42565b34801561060657600080fd5b50610264610615366004611b52565b610ec5565b34801561062657600080fd5b50600354610214906001600160a01b031681565b34801561064657600080fd5b5061024c610655366004611b1d565b610f40565b34801561066657600080fd5b50610264610675366004611b1d565b610f4d565b34801561068657600080fd5b50600454610214906001600160a01b031681565b3480156106a657600080fd5b5061024c6106b5366004611cd1565b6110e4565b61024c6106c8366004611cfb565b6111ba565b3480156106d957600080fd5b5061024c6106e8366004611b52565b611748565b3480156106f957600080fd5b5061024c610708366004611b1d565b611783565b60008181526008602081905260409091200154819060ff1661074a5760405162461bcd60e51b815260040161074190611d17565b60405180910390fd5b60008281526008602052604090205482906001600160a01b031633146107825760405162461bcd60e51b815260040161074190611d46565b60008381526008602052604081209061079a85610f4d565b604080516102008101825284546001600160a01b0390811682526001860154811660208301526002860154928201929092526003850154606082015260048501546080820152600585015490911660a0820152600684015460c0820152600784015460e0820152600884015460ff8082161515610100808501919091528083048216151561012085015262010000909204811615156101408401526009860154610160840152600a860154610180840152600b86015480821615156101a0850152919091041615156101c0820152600c8401546101e0820152909150600090610883908361183c565b600184015460058501549192506108a7916001600160a01b039081169116836118a7565b60088301805460ff191690556040805187815260208101839052600081830152905133917f43acfd20cba69d3105bc741dd2309494a8078fbd9edbba352f55c1d2e8d5a073919081900360600190a2505050505050565b6109066118fe565b600480546001600160a01b0319166001600160a01b0392909216919091179055565b6109306118fe565b61093a600061192b565b565b60008181526008602081905260409091200154819060ff166109705760405162461bcd60e51b815260040161074190611d17565b60008281526008602052604090205482906001600160a01b031633146109a85760405162461bcd60e51b815260040161074190611d46565b60008381526008602052604090819020600b01805461ff00191661010017905551339084907faa3a6e8672a48e48add7a6b4734d3453c1283562873808301857b72e2ccc0d29906109ff9060011515815260200190565b60405180910390a3505050565b60008281526008602081905260409091200154829060ff16610a405760405162461bcd60e51b815260040161074190611d17565b60008381526008602052604090205483906001600160a01b03163314610a785760405162461bcd60e51b815260040161074190611d46565b6000848152600860205260409020600b810154610100900460ff1615610ad35760405162461bcd60e51b815260206004820152601060248201526f14dd1c99585b481a5cc81c185d5cd95960821b6044820152606401610741565b8060030154421015610b205760405162461bcd60e51b815260206004820152601660248201527514dd1c99585b481a185cc81b9bdd081cdd185c9d195960521b6044820152606401610741565b8060040154421115610b675760405162461bcd60e51b815260206004820152601060248201526f14dd1c99585b481a185cc8195b99195960821b6044820152606401610741565b6000610b7286610f4d565b604080516102008101825284546001600160a01b0390811682526001860154811660208301526002860154928201929092526003850154606082015260048501546080820152600585015490911660a0820152600684015460c0820152600784015460e0820152600884015460ff8082161515610100808501919091528083048216151561012085015262010000909204811615156101408401526009860154610160840152600a860154610180840152600b86015480821615156101a0850152919091041615156101c0820152600c8401546101e0820152909150600090610c5b908361197b565b905080861115610cb95760405162461bcd60e51b8152602060048201526024808201527f416d6f756e74206578636565647320776861742063616e2062652077697468646044820152633930bbb760e11b6064820152608401610741565b85836002016000828254610ccd9190611da8565b909155505060018301546005840154610cf3916001600160a01b039182169116886118a7565b82600901544210158015610d0c5750600b83015460ff16155b15610d2157600b8301805460ff191660011790555b604051868152339088907f36c3ab437e6a424ed25dc4bfdeb62706aa06558660fab2dab229d2555adaf89c9060200160405180910390a350505050505050565b60008281526008602081905260409091200154829060ff16610d955760405162461bcd60e51b815260040161074190611d17565b60008381526008602052604090205483906001600160a01b03163314610dcd5760405162461bcd60e51b815260040161074190611d46565b60008481526008602090815260409182902060010180546001600160a01b0387166001600160a01b03199091168117909155825187815233928101929092528183015290517f2332b32c657da903f97fc41b3802c0d654be883822c4fc814f7aac8826f602429181900360600190a150505050565b60008281526008602081905260409091200154829060ff16610e765760405162461bcd60e51b815260040161074190611d17565b60008381526008602052604090205483906001600160a01b03163314610eae5760405162461bcd60e51b815260040161074190611d46565b505060009182526008602052604090912060040155565b6001600160a01b03811660009081526006602052604081205460ff16610f245760405162461bcd60e51b8152602060048201526014602482015273151bdad95b881b9bdd081c9959da5cdd195c995960621b6044820152606401610741565b506001600160a01b031660009081526007602052604090205490565b610f486118fe565b600555565b600081815260086020819052604082200154829060ff16610f805760405162461bcd60e51b815260040161074190611d17565b60008381526008602081815260409283902083516102008101855281546001600160a01b039081168252600183015481169382019390935260028201549481019490945260038101546060850181905260048201546080860152600582015490921660a0850152600681015460c0850152600781015460e08501529182015460ff8082161515610100808701919091528083048216151561012087015262010000909204811615156101408601526009840154610160860152600a840154610180860152600b84015480821615156101a0870152919091041615156101c0840152600c909101546101e083015242101561107e5760009250506110de565b60008160600151426110909190611da8565b90506000826060015183608001516110a89190611da8565b9050808211156110c85760c08301516110c19082611dbb565b94506110da565b60c08301516110d79083611dbb565b94505b5050505b50919050565b6110ec6118fe565b6001600160a01b03821660009081526006602052604090205460ff16156111555760405162461bcd60e51b815260206004820152601860248201527f546f6b656e20616c7265616479207265676973746572656400000000000000006044820152606401610741565b6001600160a01b0382166000818152600660209081526040808320805460ff19166001179055600782529182902084905590518381527fd7ca5dc2f8c6bb37c3a4de2a81499b25f8ca8bbb3082010244fe747077d0f6cc910160405180910390a25050565b6111c2611a7c565b600660006111d66080840160608501611b52565b6001600160a01b0316815260208101919091526040016000205460ff166112365760405162461bcd60e51b8152602060048201526014602482015273151bdad95b881b9bdd081c9959da5cdd195c995960621b6044820152606401610741565b80608001358160a00135116112985760405162461bcd60e51b815260206004820152602260248201527f53746f702074696d65206d7573742062652061667465722073746172742074696044820152616d6560f01b6064820152608401610741565b60008160400135116112ec5760405162461bcd60e51b815260206004820152601e60248201527f4465706f736974206d7573742062652067726561746572207468616e203000006044820152606401610741565b60028054600091826112fd83611ddd565b90915550905060006113156080840160608501611b52565b604080516370a0823160e01b8152336004820152919250840135906001600160a01b038316906370a0823190602401602060405180830381865afa158015611361573d6000803e3d6000fd5b505050506040513d601f19601f820116820180604052508101906113859190611df6565b10156113df5760405162461bcd60e51b8152602060048201526024808201527f62616c616e6365206f66207468652073656e64657220697320206e6f7420656e6044820152630deeaced60e31b6064820152608401610741565b604080516323b872dd60e01b81523360048201523060248201529084013560448201526001600160a01b038216906323b872dd906064016020604051808303816000875af1158015611435573d6000803e3d6000fd5b505050506040513d601f19601f820116820180604052508101906114599190611e1d565b506040518061020001604052808460200160208101906114799190611b52565b6001600160a01b0316815260209081019061149690860186611b52565b6001600160a01b0316815260200184604001358152602001846080013581526020018460a0013581526020018460600160208101906114d59190611b52565b6001600160a01b0316815260c08501356020820152426040820152600160608201526000608082015260a001611512610100860160e08701611e3a565b151581526101208086013560208084019190915261014080880135604080860191909152600060608087018290526080808801839052610100808d013560a0998a01528b84526008808852938590208a5181546001600160a01b039182166001600160a01b03199182161783558c8a0151600184018054918416918316919091179055968c01516002830155938b01516003820155918a015160048301559789015160058201805491909316941693909317905560c0870151600683015560e0870151600783015586860151908201805495880151938801511515620100000262ff000019941515880261ff0019931515841661ffff19988916171794909416939093179092556101608601516009820155610180860151600a8201556101a0860151600b820180546101c089015115159097029115159093169590941694909417929092179091556101e090920151600c9091015561167490840184611b52565b6001600160a01b031633837fc89cdbc27dd87b75e817c67068e8073fb3a894feae2669db8a3f8d8298c3a78f60408701356116b56080890160608a01611b52565b88608001358960a001358a60c001358b61014001358c61012001358d61010001358e60e00160208101906116e99190611e3a565b60408051998a526001600160a01b0390981660208a0152968801959095526060870193909352608086019190915260a085015260c084015260e083015215156101008201526101200160405180910390a4505061174560018055565b50565b6117506118fe565b6001600160a01b03811661177a57604051631e4fbdf760e01b815260006004820152602401610741565b6117458161192b565b60008181526008602081905260409091200154819060ff166117b75760405162461bcd60e51b815260040161074190611d17565b60008281526008602052604090205482906001600160a01b031633146117ef5760405162461bcd60e51b815260040161074190611d46565b6000838152600860209081526040808320600b01805461ff001916905551918252339185917f0322d98553166f818484d6cf16e0b9c4d29a0e7d51418789ecad37aa2ae429a691016109ff565b600080611849848461197b565b90508091504284608001511180156118645750836040015181105b1561187157836040015191505b428460800151111580156118885750836040015181105b156118a05780846040015161189d9190611da8565b91505b5092915050565b604080516001600160a01b038416602482015260448082018490528251808303909101815260649091019091526020810180516001600160e01b031663a9059cbb60e01b1790526118f9908490611aa6565b505050565b6000546001600160a01b0316331461093a5760405163118cdaa760e01b8152336004820152602401610741565b600080546001600160a01b038381166001600160a01b0319831681178455604051919092169283917f8be0079c531659141344cd1fd0a4f28419497f9722a3daafe3b4186f6b6457e09190a35050565b6000826060015142101561199157506000611a76565b60408301516101608401514210156119ad576000915050611a76565b836101a001516119df5783610180015184604001516119cc9190611da8565b8461018001516119dc9190611e57565b90505b6080840151839042106119f457819250611a5a565b60008560c0015186606001518760800151611a0f9190611da8565b611a199190611dbb565b905060008187610180015185611a2f9190611da8565b611a399190611dbb565b9050611a458382611e6a565b876101800151611a559190611e57565b945050505b84604001518311611a6b5782611a71565b84604001515b925050505b92915050565b600260015403611a9f57604051633ee5aeb560e01b815260040160405180910390fd5b6002600155565b600080602060008451602086016000885af180611ac9576040513d6000823e3d81fd5b50506000513d91508115611ae1578060011415611aee565b6001600160a01b0384163b155b15611b1757604051635274afe760e01b81526001600160a01b0385166004820152602401610741565b50505050565b600060208284031215611b2f57600080fd5b5035919050565b80356001600160a01b0381168114611b4d57600080fd5b919050565b600060208284031215611b6457600080fd5b611b6d82611b36565b9392505050565b60008060408385031215611b8757600080fd5b50508035926020909101359150565b81516001600160a01b0316815261020081016020830151611bc260208401826001600160a01b03169052565b5060408301516040830152606083015160608301526080830151608083015260a0830151611bfb60a08401826001600160a01b03169052565b5060c083015160c083015260e083015160e0830152610100830151611c2561010084018215159052565b50610120830151611c3b61012084018215159052565b50610140830151611c5161014084018215159052565b506101608301516101608301526101808301516101808301526101a0830151611c7f6101a084018215159052565b506101c0830151611c956101c084018215159052565b506101e092830151919092015290565b60008060408385031215611cb857600080fd5b82359150611cc860208401611b36565b90509250929050565b60008060408385031215611ce457600080fd5b611ced83611b36565b946020939093013593505050565b6000610200828403128015611d0f57600080fd5b509092915050565b60208082526015908201527414dd1c99585b48191bd95cc81b9bdd08195e1a5cdd605a1b604082015260600190565b6020808252602c908201527f4f6e6c79207468652073747265616d206f776e65722063616e2063616c6c207460408201526b3434b990333ab731ba34b7b760a11b606082015260800190565b634e487b7160e01b600052601160045260246000fd5b81810381811115611a7657611a76611d92565b600082611dd857634e487b7160e01b600052601260045260246000fd5b500490565b600060018201611def57611def611d92565b5060010190565b600060208284031215611e0857600080fd5b5051919050565b801515811461174557600080fd5b600060208284031215611e2f57600080fd5b8151611b6d81611e0f565b600060208284031215611e4c57600080fd5b8135611b6d81611e0f565b80820180821115611a7657611a76611d92565b8082028115828204841417611a7657611a76611d9256fea2646970667358221220dd262c2ddbb110f3011dd14e83cf7b405e5fb1a246f29f7ea0fc6b35f5d26e2a64736f6c634300081c0033","linkReferences":{}},"methodIdentifiers":{"_autoClaimAccount()":"b04c066c","_autoClaimFeeForOnce()":"1e4602ef","_feeRecipient()":"a342f238","autoClaimAccount()":"1726c966","autoClaimFeeForOnce()":"7320659f","closeStream(uint256)":"1d1b7b77","createStream((address,address,uint256,address,uint256,uint256,uint256,bool,uint256,uint256,uint256,bool,uint256,bool,bool,bool))":"ea8d80b3","deltaOf(uint256)":"a82ccd4d","extendStream(uint256,uint256)":"a1ca133e","feeRecipient()":"46904840","getPauseStatus(uint256)":"64d3f5cf","getStopTime(uint256)":"5e393900","getStream(uint256)":"894e9a0d","getStreamClose(uint256)":"0647006a","nextStreamId()":"1e99d569","owner()":"8da5cb5b","pauseStream(uint256)":"746ff13d","renounceOwnership()":"715018a6","resumeStream(uint256)":"fb6a984e","setAutoClaimAccount(address)":"57825565","setAutoFeeForOnce(uint256)":"a6bf5666","setNewRecipient(uint256,address)":"97da9b5c","streamInfo(uint256)":"67c3e727","tokenFeeRate(address)":"a2e40c44","tokenRegister(address,uint256)":"cb6bebf9","transferOwnership(address)":"f2fde38b","withdrawFromStream(uint256,uint256)":"7a9b2c6c"},"id":0}